{
  "contractName": "Game",
  "abi": [
    {
      "constant": false,
      "inputs": [
        {
          "name": "_answer",
          "type": "uint8"
        }
      ],
      "name": "bet",
      "outputs": [
        {
          "name": "res",
          "type": "uint8"
        }
      ],
      "payable": false,
      "stateMutability": "nonpayable",
      "type": "function"
    },
    {
      "constant": true,
      "inputs": [
        {
          "name": "_t",
          "type": "address"
        }
      ],
      "name": "seeMyScore",
      "outputs": [
        {
          "name": "res",
          "type": "uint256"
        }
      ],
      "payable": false,
      "stateMutability": "view",
      "type": "function"
    },
    {
      "constant": true,
      "inputs": [
        {
          "name": "id",
          "type": "uint256"
        },
        {
          "name": "_t",
          "type": "address"
        }
      ],
      "name": "seeMyPartnerAnswer",
      "outputs": [
        {
          "name": "",
          "type": "uint8"
        }
      ],
      "payable": false,
      "stateMutability": "view",
      "type": "function"
    },
    {
      "constant": true,
      "inputs": [
        {
          "name": "_t",
          "type": "address"
        }
      ],
      "name": "seeMyQofGames",
      "outputs": [
        {
          "name": "",
          "type": "uint256"
        }
      ],
      "payable": false,
      "stateMutability": "view",
      "type": "function"
    },
    {
      "constant": true,
      "inputs": [
        {
          "name": "_qGame",
          "type": "uint256"
        },
        {
          "name": "_t",
          "type": "address"
        }
      ],
      "name": "seeMyAnswer",
      "outputs": [
        {
          "name": "",
          "type": "uint8"
        }
      ],
      "payable": false,
      "stateMutability": "view",
      "type": "function"
    },
    {
      "constant": true,
      "inputs": [
        {
          "name": "_t",
          "type": "address"
        }
      ],
      "name": "seeMyAnswers",
      "outputs": [
        {
          "name": "",
          "type": "uint8[9]"
        }
      ],
      "payable": false,
      "stateMutability": "view",
      "type": "function"
    },
    {
      "constant": true,
      "inputs": [],
      "name": "seeMyPartners",
      "outputs": [
        {
          "name": "",
          "type": "address[9]"
        }
      ],
      "payable": false,
      "stateMutability": "view",
      "type": "function"
    },
    {
      "constant": true,
      "inputs": [
        {
          "name": "_t",
          "type": "address"
        }
      ],
      "name": "seeMyIds",
      "outputs": [
        {
          "name": "",
          "type": "uint256[9]"
        }
      ],
      "payable": false,
      "stateMutability": "view",
      "type": "function"
    },
    {
      "constant": true,
      "inputs": [
        {
          "name": "_qGame",
          "type": "uint256"
        },
        {
          "name": "_t",
          "type": "address"
        }
      ],
      "name": "seeMyId",
      "outputs": [
        {
          "name": "",
          "type": "uint256"
        }
      ],
      "payable": false,
      "stateMutability": "view",
      "type": "function"
    }
  ],
  "bytecode": "0x608060405234801561001057600080fd5b50611abf806100206000396000f300608060405260043610610099576000357c0100000000000000000000000000000000000000000000000000000000900463ffffffff16806320478e261461009e57806344b19b6d1461011d5780637a697b0914610174578063833e098b146101db578063a33b89111461025a578063a976acf1146102c1578063c367135314610322578063d0821b0e14610375578063f4447e50146103bf575b600080fd5b3480156100aa57600080fd5b506100df600480360381019080803573ffffffffffffffffffffffffffffffffffffffff169060200190929190505050610416565b6040518082600960200280838360005b8381101561010a5780820151818401526020810190506100ef565b5050505090500191505060405180910390f35b34801561012957600080fd5b5061015e600480360381019080803573ffffffffffffffffffffffffffffffffffffffff1690602001909291905050506104a3565b6040518082815260200191505060405180910390f35b34801561018057600080fd5b506101bf60048036038101908080359060200190929190803573ffffffffffffffffffffffffffffffffffffffff1690602001909291905050506104ef565b604051808260ff1660ff16815260200191505060405180910390f35b3480156101e757600080fd5b5061021c600480360381019080803573ffffffffffffffffffffffffffffffffffffffff16906020019092919050505061055a565b6040518082600960200280838360005b8381101561024757808201518184015260208101905061022c565b5050505090500191505060405180910390f35b34801561026657600080fd5b506102a560048036038101908080359060200190929190803573ffffffffffffffffffffffffffffffffffffffff16906020019092919050505061060d565b604051808260ff1660ff16815260200191505060405180910390f35b3480156102cd57600080fd5b5061030c60048036038101908080359060200190929190803573ffffffffffffffffffffffffffffffffffffffff16906020019092919050505061068c565b6040518082815260200191505060405180910390f35b34801561032e57600080fd5b506103376106e7565b6040518082600960200280838360005b83811015610362578082015181840152602081019050610347565b5050505090500191505060405180910390f35b34801561038157600080fd5b506103a3600480360381019080803560ff1690602001909291905050506107a8565b604051808260ff1660ff16815260200191505060405180910390f35b3480156103cb57600080fd5b50610400600480360381019080803573ffffffffffffffffffffffffffffffffffffffff1690602001909291905050506109db565b6040518082815260200191505060405180910390f35b61041e611a27565b600460008373ffffffffffffffffffffffffffffffffffffffff1673ffffffffffffffffffffffffffffffffffffffff168152602001908152602001600020600e01600980602002604051908101604052809291908260098015610497576020028201915b815481526020019060010190808311610483575b50505050509050919050565b6000600460008373ffffffffffffffffffffffffffffffffffffffff1673ffffffffffffffffffffffffffffffffffffffff168152602001908152602001600020600001549050919050565b6000600460008373ffffffffffffffffffffffffffffffffffffffff1673ffffffffffffffffffffffffffffffffffffffff168152602001908152602001600020600d01600084815260200190815260200160002060009054906101000a900460ff16905092915050565b610562611a4b565b600460008373ffffffffffffffffffffffffffffffffffffffff1673ffffffffffffffffffffffffffffffffffffffff168152602001908152602001600020600201600980602002604051908101604052809291908260098015610601576020028201916000905b82829054906101000a900460ff1660ff16815260200190600101906020826000010492830192600103820291508084116105ca5790505b50505050509050919050565b60006009831115151561061f57600080fd5b600460008373ffffffffffffffffffffffffffffffffffffffff1673ffffffffffffffffffffffffffffffffffffffff1681526020019081526020016000206002018360098110151561066e57fe5b602091828204019190069054906101000a900460ff16905092915050565b6000600460008373ffffffffffffffffffffffffffffffffffffffff1673ffffffffffffffffffffffffffffffffffffffff168152602001908152602001600020600e01836009811015156106dd57fe5b0154905092915050565b6106ef611a6f565b600460003373ffffffffffffffffffffffffffffffffffffffff1673ffffffffffffffffffffffffffffffffffffffff16815260200190815260200160002060030160098060200260405190810160405280929190826009801561079e576020028201915b8160009054906101000a900473ffffffffffffffffffffffffffffffffffffffff1673ffffffffffffffffffffffffffffffffffffffff1681526020019060010190808311610754575b5050505050905090565b6000600b60ff16600460003373ffffffffffffffffffffffffffffffffffffffff1673ffffffffffffffffffffffffffffffffffffffff168152602001908152602001600020600c01600460003373ffffffffffffffffffffffffffffffffffffffff1673ffffffffffffffffffffffffffffffffffffffff1681526020019081526020016000206000015460098110151561084057fe5b602091828204019190069054906101000a900460ff1660ff161415151561086657600080fd5b81600460003373ffffffffffffffffffffffffffffffffffffffff1673ffffffffffffffffffffffffffffffffffffffff168152602001908152602001600020600201600460003373ffffffffffffffffffffffffffffffffffffffff1673ffffffffffffffffffffffffffffffffffffffff168152602001908152602001600020600001546009811015156108f857fe5b602091828204019190066101000a81548160ff021916908360ff160217905550600b600460003373ffffffffffffffffffffffffffffffffffffffff1673ffffffffffffffffffffffffffffffffffffffff168152602001908152602001600020600c01600460003373ffffffffffffffffffffffffffffffffffffffff1673ffffffffffffffffffffffffffffffffffffffff168152602001908152602001600020600001546009811015156109ab57fe5b602091828204019190066101000a81548160ff021916908360ff1602179055506109d433610d27565b9050919050565b600080600090505b600460003373ffffffffffffffffffffffffffffffffffffffff1673ffffffffffffffffffffffffffffffffffffffff1681526020019081526020016000206000015481111515610d2157600460ff16600460008573ffffffffffffffffffffffffffffffffffffffff1673ffffffffffffffffffffffffffffffffffffffff16815260200190815260200160002060010182600981101515610a8257fe5b602091828204019190069054906101000a900460ff1660ff161415610aa8576001820191505b600260ff16600460003373ffffffffffffffffffffffffffffffffffffffff1673ffffffffffffffffffffffffffffffffffffffff16815260200190815260200160002060010182600981101515610afc57fe5b602091828204019190069054906101000a900460ff1660ff161415610ba157600a60ff16600460008573ffffffffffffffffffffffffffffffffffffffff1673ffffffffffffffffffffffffffffffffffffffff16815260200190815260200160002060020182600981101515610b6f57fe5b602091828204019190069054906101000a900460ff1660ff161415610b9957600082019150610ba0565b600a820191505b5b600160ff16600460003373ffffffffffffffffffffffffffffffffffffffff1673ffffffffffffffffffffffffffffffffffffffff16815260200190815260200160002060010182600981101515610bf557fe5b602091828204019190069054906101000a900460ff1660ff161415610c9a57600a60ff16600460008573ffffffffffffffffffffffffffffffffffffffff1673ffffffffffffffffffffffffffffffffffffffff16815260200190815260200160002060020182600981101515610c6857fe5b602091828204019190069054906101000a900460ff1660ff161415610c9257600082019150610c99565b600a820191505b5b600360ff16600460008573ffffffffffffffffffffffffffffffffffffffff1673ffffffffffffffffffffffffffffffffffffffff16815260200190815260200160002060010182600981101515610cee57fe5b602091828204019190069054906101000a900460ff1660ff161415610d14576002820191505b80806001019150506109e3565b50919050565b6000806000806000806003544210151515610daa576040517f08c379a00000000000000000000000000000000000000000000000000000000081526004018080602001828103825260128152602001807f706c656173652c2077616974206120626974000000000000000000000000000081525060200191505060405180910390fd5b610db261196a565b60008790806001815401808255809150509060018203906000526020600020016000909192909190916101000a81548173ffffffffffffffffffffffffffffffffffffffff021916908373ffffffffffffffffffffffffffffffffffffffff16021790555050600160008154809291906001019190505550600180541415610e67576001600260006101000a81548160ff021916908360ff160217905550600260009054906101000a900460ff169550611960565b60006002600154811515610e7757fe5b0614158015610e9b5750600760ff16600260009054906101000a900460ff1660ff16145b15610ed3576001600260006101000a81548160ff021916908360ff160217905550600260009054906101000a900460ff169550611960565b60006002600154811515610ee357fe5b06148015610f065750600160ff16600260009054906101000a900460ff1660ff16145b15611955576000600260015403815481101515610f1f57fe5b9060005260206000200160009054906101000a900473ffffffffffffffffffffffffffffffffffffffff16945060006001805403815481101515610f5f57fe5b9060005260206000200160009054906101000a900473ffffffffffffffffffffffffffffffffffffffff169350600460008673ffffffffffffffffffffffffffffffffffffffff1673ffffffffffffffffffffffffffffffffffffffff168152602001908152602001600020600201600460008773ffffffffffffffffffffffffffffffffffffffff1673ffffffffffffffffffffffffffffffffffffffff1681526020019081526020016000206000015460098110151561101d57fe5b602091828204019190069054906101000a900460ff169250600460008573ffffffffffffffffffffffffffffffffffffffff1673ffffffffffffffffffffffffffffffffffffffff168152602001908152602001600020600201600460008673ffffffffffffffffffffffffffffffffffffffff1673ffffffffffffffffffffffffffffffffffffffff168152602001908152602001600020600001546009811015156110c657fe5b602091828204019190069054906101000a900460ff1691506110e88383611976565b905080600460008773ffffffffffffffffffffffffffffffffffffffff1673ffffffffffffffffffffffffffffffffffffffff168152602001908152602001600020600101600460008873ffffffffffffffffffffffffffffffffffffffff1673ffffffffffffffffffffffffffffffffffffffff1681526020019081526020016000206000015460098110151561117c57fe5b602091828204019190066101000a81548160ff021916908360ff16021790555080600460008673ffffffffffffffffffffffffffffffffffffffff1673ffffffffffffffffffffffffffffffffffffffff168152602001908152602001600020600101600460008773ffffffffffffffffffffffffffffffffffffffff1673ffffffffffffffffffffffffffffffffffffffff1681526020019081526020016000206000015460098110151561122e57fe5b602091828204019190066101000a81548160ff021916908360ff16021790555083600460008773ffffffffffffffffffffffffffffffffffffffff1673ffffffffffffffffffffffffffffffffffffffff168152602001908152602001600020600301600460008873ffffffffffffffffffffffffffffffffffffffff1673ffffffffffffffffffffffffffffffffffffffff168152602001908152602001600020600001546009811015156112e057fe5b0160006101000a81548173ffffffffffffffffffffffffffffffffffffffff021916908373ffffffffffffffffffffffffffffffffffffffff16021790555084600460008673ffffffffffffffffffffffffffffffffffffffff1673ffffffffffffffffffffffffffffffffffffffff168152602001908152602001600020600301600460008773ffffffffffffffffffffffffffffffffffffffff1673ffffffffffffffffffffffffffffffffffffffff168152602001908152602001600020600001546009811015156113b157fe5b0160006101000a81548173ffffffffffffffffffffffffffffffffffffffff021916908373ffffffffffffffffffffffffffffffffffffffff160217905550600c600460008773ffffffffffffffffffffffffffffffffffffffff1673ffffffffffffffffffffffffffffffffffffffff168152602001908152602001600020600c01600460008873ffffffffffffffffffffffffffffffffffffffff1673ffffffffffffffffffffffffffffffffffffffff1681526020019081526020016000206000015460098110151561148357fe5b602091828204019190066101000a81548160ff021916908360ff160217905550600c600460008673ffffffffffffffffffffffffffffffffffffffff1673ffffffffffffffffffffffffffffffffffffffff168152602001908152602001600020600c01600460008773ffffffffffffffffffffffffffffffffffffffff1673ffffffffffffffffffffffffffffffffffffffff1681526020019081526020016000206000015460098110151561153657fe5b602091828204019190066101000a81548160ff021916908360ff16021790555042600460008673ffffffffffffffffffffffffffffffffffffffff1673ffffffffffffffffffffffffffffffffffffffff168152602001908152602001600020600e01600460008773ffffffffffffffffffffffffffffffffffffffff1673ffffffffffffffffffffffffffffffffffffffff168152602001908152602001600020600001546009811015156115e857fe5b018190555042600460008773ffffffffffffffffffffffffffffffffffffffff1673ffffffffffffffffffffffffffffffffffffffff168152602001908152602001600020600e01600460008773ffffffffffffffffffffffffffffffffffffffff1673ffffffffffffffffffffffffffffffffffffffff1681526020019081526020016000206000015460098110151561167f57fe5b018190555082600460008673ffffffffffffffffffffffffffffffffffffffff1673ffffffffffffffffffffffffffffffffffffffff168152602001908152602001600020600d016000600460008873ffffffffffffffffffffffffffffffffffffffff1673ffffffffffffffffffffffffffffffffffffffff168152602001908152602001600020600e01600460008973ffffffffffffffffffffffffffffffffffffffff1673ffffffffffffffffffffffffffffffffffffffff1681526020019081526020016000206000015460098110151561175a57fe5b0154815260200190815260200160002060006101000a81548160ff021916908360ff16021790555081600460008773ffffffffffffffffffffffffffffffffffffffff1673ffffffffffffffffffffffffffffffffffffffff168152602001908152602001600020600d016000600460008973ffffffffffffffffffffffffffffffffffffffff1673ffffffffffffffffffffffffffffffffffffffff168152602001908152602001600020600e01600460008a73ffffffffffffffffffffffffffffffffffffffff1673ffffffffffffffffffffffffffffffffffffffff1681526020019081526020016000206000015460098110151561185857fe5b0154815260200190815260200160002060006101000a81548160ff021916908360ff1602179055506001600460008773ffffffffffffffffffffffffffffffffffffffff1673ffffffffffffffffffffffffffffffffffffffff168152602001908152602001600020600001600082825401925050819055506001600460008673ffffffffffffffffffffffffffffffffffffffff1673ffffffffffffffffffffffffffffffffffffffff168152602001908152602001600020600001600082825401925050819055506007600260006101000a81548160ff021916908360ff160217905550600260009054906101000a900460ff169550611960565b61195e87610d27565b505b5050505050919050565b600a4201600381905550565b6000600860ff168360ff161480156119945750600860ff168260ff16145b156119a25760049050611a21565b600860ff168360ff161480156119be5750600a60ff168260ff16145b156119cc5760029050611a21565b600a60ff168360ff161480156119e85750600860ff168260ff16145b156119f65760019050611a21565b600a60ff168360ff16148015611a125750600a60ff168260ff16145b15611a205760039050611a21565b5b92915050565b61012060405190810160405280600990602082028038833980820191505090505090565b61012060405190810160405280600990602082028038833980820191505090505090565b610120604051908101604052806009906020820280388339808201915050905050905600a165627a7a72305820eb7d62ceb112bd2f168864d6ac8befc0cd48e374b4bd84e74720d1631b4da77a0029",
  "source": "pragma solidity ^0.4.23;\n\ncontract IGame {\n  \n  uint8 constant DONT_TELL_ANYTHING = 8;\n  uint8 constant TELL_EVERYTHING = 10;\n  \n  function bet(uint8 _answer) external returns (uint8 res);\n  \n  function seeMyScore(address _t) external view returns (uint res);\n  \n  function seeMyPartnerAnswer(uint id, address _t) public view returns (uint8);\n  \n  function seeMyQofGames(address _t) public view returns (uint);\n  \n  function seeMyAnswer(uint _qGame, address _t) public view returns (uint8);\n  \n  function seeMyAnswers(address _t) public view returns (uint8[9]);\n  \n  function seeMyPartners(address _t) public view returns (address[9]);\n  \n  function seeMyIds(address _t) public view returns (uint[9]);\n  \n  function seeMyId(uint _qGame, address _t) public view returns (uint);\n}\n\ncontract Player {\n  \n  address target;\n  \n  constructor(address _target) {\n    target = _target;\n  }\n  \n  function setBet() {\n    IGame I = IGame(target);\n    I.bet(0x8);\n  }\n  \n}\n\ncontract Game {\n  \n  uint8 constant DONT_TELL_ANYTHING = 8;\n  uint8 constant TELL_EVERYTHING = 10;\n  \n  uint8 constant RESULT_TEN_ZERO = 1;\n  uint8 constant RESULT_ZERO_TEN = 2;\n  uint8 constant RESULT_TWO_TWO = 3;\n  uint8 constant RESULT_HALF_HALF = 4;\n  \n  uint8 constant IN_PROGRESS = 1;\n  uint8 constant DONE = 7;\n  \n  uint8 constant OPENED = 11;\n  uint8 constant CLOSED = 12;\n  \n  address []currentPlayers;\n  uint256 len;\n  \n  uint8 currentMatchingStatus;\n  \n  uint time;\n  \n  struct Stats {\n    uint256 qOfGames;\n    uint8 [9] results;\n    uint8 [9] answer;\n    address [9] partner;\n    uint8 [9] gameStatus;\n    mapping(uint => uint8) partnerRes;\n    uint [9] gameIds;\n  }\n  \n  mapping(address => Stats) stats;\n  \n  function bet(uint8 _answer) external returns (uint8 res) {\n    require(stats[msg.sender].gameStatus[stats[msg.sender].qOfGames] != OPENED);\n    stats[msg.sender].answer[stats[msg.sender].qOfGames] = _answer;\n    stats[msg.sender].gameStatus[stats[msg.sender].qOfGames] = OPENED;\n    res = play(msg.sender);\n  }\n  \n  function timeout() private {\n    time = block.timestamp + 10;\n  }\n  \n  function play(address _player) private returns (uint8) {\n    require(block.timestamp >= time, \"please, wait a bit\");\n    timeout();\n    \n    currentPlayers.push(_player);\n    len++;\n    \n    if (len == 1) {\n      currentMatchingStatus = IN_PROGRESS;\n      return currentMatchingStatus;\n    }\n    else if (len % 2 != 0 && currentMatchingStatus == DONE) {\n      currentMatchingStatus = IN_PROGRESS;\n      return currentMatchingStatus;\n    }\n    else if (len % 2 == 0 && currentMatchingStatus == IN_PROGRESS) {\n      address pOne = currentPlayers[len - 2];\n      address pTwo = currentPlayers[len - 1];\n      uint8 _resOne = stats[pOne].answer[stats[pOne].qOfGames];\n      uint8 _resTwo = stats[pTwo].answer[stats[pTwo].qOfGames];\n      uint8 resultOfGame = calcResOfGame(_resOne, _resTwo);\n      stats[pOne].results[stats[pOne].qOfGames] = resultOfGame;\n      stats[pTwo].results[stats[pTwo].qOfGames] = resultOfGame;\n      stats[pOne].partner[stats[pOne].qOfGames] = pTwo;\n      stats[pTwo].partner[stats[pTwo].qOfGames] = pOne;\n      stats[pOne].gameStatus[stats[pOne].qOfGames] = CLOSED;\n      stats[pTwo].gameStatus[stats[pTwo].qOfGames] = CLOSED;\n      stats[pTwo].gameIds[stats[pTwo].qOfGames] = block.timestamp;\n      stats[pOne].gameIds[stats[pTwo].qOfGames] = block.timestamp;\n      stats[pTwo].partnerRes[stats[pTwo].gameIds[stats[pTwo].qOfGames]] = _resOne;\n      stats[pOne].partnerRes[stats[pOne].gameIds[stats[pOne].qOfGames]] = _resTwo;\n      stats[pOne].qOfGames += 1;\n      stats[pTwo].qOfGames += 1;\n      currentMatchingStatus = DONE;\n      return currentMatchingStatus;\n    }\n    else {\n      play(_player);\n    }\n  }\n  \n  function calcResOfGame(uint8 _resOne, uint8 _resTwo) private pure returns (uint8) {\n    if (_resOne == DONT_TELL_ANYTHING && _resTwo == DONT_TELL_ANYTHING) {\n      return RESULT_HALF_HALF;\n    }\n    else if (_resOne == DONT_TELL_ANYTHING && _resTwo == TELL_EVERYTHING) {\n      return RESULT_ZERO_TEN;\n    }\n    else if (_resOne == TELL_EVERYTHING && _resTwo == DONT_TELL_ANYTHING) {\n      return RESULT_TEN_ZERO;\n    }\n    else if (_resOne == TELL_EVERYTHING && _resTwo == TELL_EVERYTHING) {\n      return RESULT_TWO_TWO;\n    }\n  }\n  \n  function seeMyScore(address _t) external view returns (uint res) {\n    for (uint i = 0; i <= stats[msg.sender].qOfGames; i++) {\n      if (stats[_t].results[i] == RESULT_HALF_HALF) {\n        res += 1;\n      }\n      if (stats[msg.sender].results[i] == RESULT_ZERO_TEN) {\n        if (stats[_t].answer[i] == TELL_EVERYTHING) {\n          res += 0;\n        }\n        else {\n          res += 10;\n        }\n      }\n      if (stats[msg.sender].results[i] == RESULT_TEN_ZERO) {\n        if (stats[_t].answer[i] == TELL_EVERYTHING) {\n          res += 0;\n        }\n        else {\n          res += 10;\n        }\n      }\n      if (stats[_t].results[i] == RESULT_TWO_TWO) {\n        res += 2;\n      }\n    }\n  }\n  \n  function seeMyPartnerAnswer(uint id, address _t) public view returns (uint8) {\n    return stats[_t].partnerRes[id];\n  }\n  \n  function seeMyQofGames(address _t) public view returns (uint) {\n    return stats[_t].qOfGames;\n  }\n  \n  function seeMyAnswer(uint _qGame, address _t) public view returns (uint8) {\n    require(_qGame <= 9);\n    return stats[_t].answer[_qGame];\n  }\n  \n  function seeMyAnswers(address _t) public view returns (uint8[9]) {\n    return stats[_t].answer;\n  }\n  \n  function seeMyPartners() public view returns (address[9]) {\n    return stats[msg.sender].partner;\n  }\n  \n  function seeMyIds(address _t) public view returns (uint[9]) {\n    return stats[_t].gameIds;\n  }\n  \n  function seeMyId(uint _qGame, address _t) public view returns (uint) {\n    return stats[_t].gameIds[_qGame];\n  }\n  \n}\n",
  "sourcePath": "/home/prazd/eth_prisoners_dilemma/contracts/custom/Game.sol",
  "compiler": {
    "name": "solc",
    "version": "0.4.23+commit.124ca40d.Emscripten.clang"
  },
  "schemaVersion": "2.0.0",
  "updatedAt": "2018-07-30T09:47:54.909Z"
}